{
  "_format": "hh-sol-artifact-1",
  "contractName": "MyNFT",
  "sourceName": "contracts/Warranty.sol",
  "abi": [
    {
      "inputs": [],
      "stateMutability": "nonpayable",
      "type": "constructor"
    },
    {
      "anonymous": false,
      "inputs": [
        {
          "indexed": true,
          "internalType": "address",
          "name": "owner",
          "type": "address"
        },
        {
          "indexed": true,
          "internalType": "address",
          "name": "approved",
          "type": "address"
        },
        {
          "indexed": true,
          "internalType": "uint256",
          "name": "tokenId",
          "type": "uint256"
        }
      ],
      "name": "Approval",
      "type": "event"
    },
    {
      "anonymous": false,
      "inputs": [
        {
          "indexed": true,
          "internalType": "address",
          "name": "owner",
          "type": "address"
        },
        {
          "indexed": true,
          "internalType": "address",
          "name": "operator",
          "type": "address"
        },
        {
          "indexed": false,
          "internalType": "bool",
          "name": "approved",
          "type": "bool"
        }
      ],
      "name": "ApprovalForAll",
      "type": "event"
    },
    {
      "anonymous": false,
      "inputs": [
        {
          "indexed": true,
          "internalType": "address",
          "name": "previousOwner",
          "type": "address"
        },
        {
          "indexed": true,
          "internalType": "address",
          "name": "newOwner",
          "type": "address"
        }
      ],
      "name": "OwnershipTransferred",
      "type": "event"
    },
    {
      "anonymous": false,
      "inputs": [
        {
          "indexed": true,
          "internalType": "address",
          "name": "from",
          "type": "address"
        },
        {
          "indexed": true,
          "internalType": "address",
          "name": "to",
          "type": "address"
        },
        {
          "indexed": true,
          "internalType": "uint256",
          "name": "tokenId",
          "type": "uint256"
        }
      ],
      "name": "Transfer",
      "type": "event"
    },
    {
      "inputs": [
        {
          "internalType": "address",
          "name": "to",
          "type": "address"
        },
        {
          "internalType": "uint256",
          "name": "tokenId",
          "type": "uint256"
        }
      ],
      "name": "approve",
      "outputs": [],
      "stateMutability": "nonpayable",
      "type": "function"
    },
    {
      "inputs": [
        {
          "internalType": "address",
          "name": "owner",
          "type": "address"
        }
      ],
      "name": "balanceOf",
      "outputs": [
        {
          "internalType": "uint256",
          "name": "",
          "type": "uint256"
        }
      ],
      "stateMutability": "view",
      "type": "function"
    },
    {
      "inputs": [
        {
          "internalType": "uint256",
          "name": "tokenId",
          "type": "uint256"
        }
      ],
      "name": "burnNFT",
      "outputs": [],
      "stateMutability": "nonpayable",
      "type": "function"
    },
    {
      "inputs": [
        {
          "internalType": "uint256",
          "name": "tokenId",
          "type": "uint256"
        }
      ],
      "name": "getApproved",
      "outputs": [
        {
          "internalType": "address",
          "name": "",
          "type": "address"
        }
      ],
      "stateMutability": "view",
      "type": "function"
    },
    {
      "inputs": [
        {
          "internalType": "address",
          "name": "owner",
          "type": "address"
        },
        {
          "internalType": "address",
          "name": "operator",
          "type": "address"
        }
      ],
      "name": "isApprovedForAll",
      "outputs": [
        {
          "internalType": "bool",
          "name": "",
          "type": "bool"
        }
      ],
      "stateMutability": "view",
      "type": "function"
    },
    {
      "inputs": [
        {
          "internalType": "address",
          "name": "recipient",
          "type": "address"
        },
        {
          "internalType": "string",
          "name": "tokenURI",
          "type": "string"
        }
      ],
      "name": "mintNFT",
      "outputs": [
        {
          "internalType": "uint256",
          "name": "",
          "type": "uint256"
        }
      ],
      "stateMutability": "nonpayable",
      "type": "function"
    },
    {
      "inputs": [],
      "name": "name",
      "outputs": [
        {
          "internalType": "string",
          "name": "",
          "type": "string"
        }
      ],
      "stateMutability": "view",
      "type": "function"
    },
    {
      "inputs": [],
      "name": "owner",
      "outputs": [
        {
          "internalType": "address",
          "name": "",
          "type": "address"
        }
      ],
      "stateMutability": "view",
      "type": "function"
    },
    {
      "inputs": [
        {
          "internalType": "uint256",
          "name": "tokenId",
          "type": "uint256"
        }
      ],
      "name": "ownerOf",
      "outputs": [
        {
          "internalType": "address",
          "name": "",
          "type": "address"
        }
      ],
      "stateMutability": "view",
      "type": "function"
    },
    {
      "inputs": [],
      "name": "renounceOwnership",
      "outputs": [],
      "stateMutability": "nonpayable",
      "type": "function"
    },
    {
      "inputs": [
        {
          "internalType": "address",
          "name": "from",
          "type": "address"
        },
        {
          "internalType": "address",
          "name": "to",
          "type": "address"
        },
        {
          "internalType": "uint256",
          "name": "tokenId",
          "type": "uint256"
        }
      ],
      "name": "safeTransferFrom",
      "outputs": [],
      "stateMutability": "nonpayable",
      "type": "function"
    },
    {
      "inputs": [
        {
          "internalType": "address",
          "name": "from",
          "type": "address"
        },
        {
          "internalType": "address",
          "name": "to",
          "type": "address"
        },
        {
          "internalType": "uint256",
          "name": "tokenId",
          "type": "uint256"
        },
        {
          "internalType": "bytes",
          "name": "data",
          "type": "bytes"
        }
      ],
      "name": "safeTransferFrom",
      "outputs": [],
      "stateMutability": "nonpayable",
      "type": "function"
    },
    {
      "inputs": [
        {
          "internalType": "address",
          "name": "operator",
          "type": "address"
        },
        {
          "internalType": "bool",
          "name": "approved",
          "type": "bool"
        }
      ],
      "name": "setApprovalForAll",
      "outputs": [],
      "stateMutability": "nonpayable",
      "type": "function"
    },
    {
      "inputs": [
        {
          "internalType": "bytes4",
          "name": "interfaceId",
          "type": "bytes4"
        }
      ],
      "name": "supportsInterface",
      "outputs": [
        {
          "internalType": "bool",
          "name": "",
          "type": "bool"
        }
      ],
      "stateMutability": "view",
      "type": "function"
    },
    {
      "inputs": [],
      "name": "symbol",
      "outputs": [
        {
          "internalType": "string",
          "name": "",
          "type": "string"
        }
      ],
      "stateMutability": "view",
      "type": "function"
    },
    {
      "inputs": [
        {
          "internalType": "uint256",
          "name": "tokenId",
          "type": "uint256"
        }
      ],
      "name": "tokenURI",
      "outputs": [
        {
          "internalType": "string",
          "name": "",
          "type": "string"
        }
      ],
      "stateMutability": "view",
      "type": "function"
    },
    {
      "inputs": [
        {
          "internalType": "address",
          "name": "from",
          "type": "address"
        },
        {
          "internalType": "address",
          "name": "to",
          "type": "address"
        },
        {
          "internalType": "uint256",
          "name": "tokenId",
          "type": "uint256"
        }
      ],
      "name": "transferFrom",
      "outputs": [],
      "stateMutability": "nonpayable",
      "type": "function"
    },
    {
      "inputs": [
        {
          "internalType": "address",
          "name": "newOwner",
          "type": "address"
        }
      ],
      "name": "transferOwnership",
      "outputs": [],
      "stateMutability": "nonpayable",
      "type": "function"
    }
  ],
  "bytecode": "0x60806040523480156200001157600080fd5b506040518060400160405280600881526020017f57617272616e74790000000000000000000000000000000000000000000000008152506040518060400160405280600381526020017f4e46540000000000000000000000000000000000000000000000000000000000815250816000908051906020019062000096929190620001a6565b508060019080519060200190620000af929190620001a6565b505050620000d2620000c6620000d860201b60201c565b620000e060201b60201c565b620002bb565b600033905090565b6000600760009054906101000a900473ffffffffffffffffffffffffffffffffffffffff16905081600760006101000a81548173ffffffffffffffffffffffffffffffffffffffff021916908373ffffffffffffffffffffffffffffffffffffffff1602179055508173ffffffffffffffffffffffffffffffffffffffff168173ffffffffffffffffffffffffffffffffffffffff167f8be0079c531659141344cd1fd0a4f28419497f9722a3daafe3b4186f6b6457e060405160405180910390a35050565b828054620001b49062000256565b90600052602060002090601f016020900481019282620001d8576000855562000224565b82601f10620001f357805160ff191683800117855562000224565b8280016001018555821562000224579182015b828111156200022357825182559160200191906001019062000206565b5b50905062000233919062000237565b5090565b5b808211156200025257600081600090555060010162000238565b5090565b600060028204905060018216806200026f57607f821691505b602082108114156200028657620002856200028c565b5b50919050565b7f4e487b7100000000000000000000000000000000000000000000000000000000600052602260045260246000fd5b612dcd80620002cb6000396000f3fe608060405234801561001057600080fd5b50600436106101165760003560e01c8063715018a6116100a2578063b88d4fde11610071578063b88d4fde146102cb578063c87b56dd146102e7578063e985e9c514610317578063eacabe1414610347578063f2fde38b1461037757610116565b8063715018a6146102695780638da5cb5b1461027357806395d89b4114610291578063a22cb465146102af57610116565b806323b872dd116100e957806323b872dd146101b55780632890e0d7146101d157806342842e0e146101ed5780636352211e1461020957806370a082311461023957610116565b806301ffc9a71461011b57806306fdde031461014b578063081812fc14610169578063095ea7b314610199575b600080fd5b61013560048036038101906101309190611fea565b610393565b60405161014291906123aa565b60405180910390f35b610153610475565b60405161016091906123c5565b60405180910390f35b610183600480360381019061017e919061203c565b610507565b6040516101909190612343565b60405180910390f35b6101b360048036038101906101ae9190611fae565b61054d565b005b6101cf60048036038101906101ca9190611e54565b610665565b005b6101eb60048036038101906101e6919061203c565b6106c5565b005b61020760048036038101906102029190611e54565b6106d9565b005b610223600480360381019061021e919061203c565b6106f9565b6040516102309190612343565b60405180910390f35b610253600480360381019061024e9190611def565b6107ab565b60405161026091906125a7565b60405180910390f35b610271610863565b005b61027b610877565b6040516102889190612343565b60405180910390f35b6102996108a1565b6040516102a691906123c5565b60405180910390f35b6102c960048036038101906102c49190611f1e565b610933565b005b6102e560048036038101906102e09190611ea3565b610949565b005b61030160048036038101906102fc919061203c565b6109ab565b60405161030e91906123c5565b60405180910390f35b610331600480360381019061032c9190611e18565b610abe565b60405161033e91906123aa565b60405180910390f35b610361600480360381019061035c9190611f5a565b610b52565b60405161036e91906125a7565b60405180910390f35b610391600480360381019061038c9190611def565b610b92565b005b60007f80ac58cd000000000000000000000000000000000000000000000000000000007bffffffffffffffffffffffffffffffffffffffffffffffffffffffff1916827bffffffffffffffffffffffffffffffffffffffffffffffffffffffff1916148061045e57507f5b5e139f000000000000000000000000000000000000000000000000000000007bffffffffffffffffffffffffffffffffffffffffffffffffffffffff1916827bffffffffffffffffffffffffffffffffffffffffffffffffffffffff1916145b8061046e575061046d82610c16565b5b9050919050565b606060008054610484906127fd565b80601f01602080910402602001604051908101604052809291908181526020018280546104b0906127fd565b80156104fd5780601f106104d2576101008083540402835291602001916104fd565b820191906000526020600020905b8154815290600101906020018083116104e057829003601f168201915b5050505050905090565b600061051282610c80565b6004600083815260200190815260200160002060009054906101000a900473ffffffffffffffffffffffffffffffffffffffff169050919050565b6000610558826106f9565b90508073ffffffffffffffffffffffffffffffffffffffff168373ffffffffffffffffffffffffffffffffffffffff1614156105c9576040517f08c379a00000000000000000000000000000000000000000000000000000000081526004016105c090612567565b60405180910390fd5b8073ffffffffffffffffffffffffffffffffffffffff166105e8610ccb565b73ffffffffffffffffffffffffffffffffffffffff161480610617575061061681610611610ccb565b610abe565b5b610656576040517f08c379a000000000000000000000000000000000000000000000000000000000815260040161064d906124e7565b60405180910390fd5b6106608383610cd3565b505050565b610676610670610ccb565b82610d8c565b6106b5576040517f08c379a00000000000000000000000000000000000000000000000000000000081526004016106ac90612587565b60405180910390fd5b6106c0838383610e21565b505050565b6106cd611088565b6106d681611106565b50565b6106f483838360405180602001604052806000815250610949565b505050565b6000806002600084815260200190815260200160002060009054906101000a900473ffffffffffffffffffffffffffffffffffffffff169050600073ffffffffffffffffffffffffffffffffffffffff168173ffffffffffffffffffffffffffffffffffffffff1614156107a2576040517f08c379a000000000000000000000000000000000000000000000000000000000815260040161079990612547565b60405180910390fd5b80915050919050565b60008073ffffffffffffffffffffffffffffffffffffffff168273ffffffffffffffffffffffffffffffffffffffff16141561081c576040517f08c379a0000000000000000000000000000000000000000000000000000000008152600401610813906124a7565b60405180910390fd5b600360008373ffffffffffffffffffffffffffffffffffffffff1673ffffffffffffffffffffffffffffffffffffffff168152602001908152602001600020549050919050565b61086b611088565b6108756000611159565b565b6000600760009054906101000a900473ffffffffffffffffffffffffffffffffffffffff16905090565b6060600180546108b0906127fd565b80601f01602080910402602001604051908101604052809291908181526020018280546108dc906127fd565b80156109295780601f106108fe57610100808354040283529160200191610929565b820191906000526020600020905b81548152906001019060200180831161090c57829003601f168201915b5050505050905090565b61094561093e610ccb565b838361121f565b5050565b61095a610954610ccb565b83610d8c565b610999576040517f08c379a000000000000000000000000000000000000000000000000000000000815260040161099090612587565b60405180910390fd5b6109a58484848461138c565b50505050565b60606109b682610c80565b60006006600084815260200190815260200160002080546109d6906127fd565b80601f0160208091040260200160405190810160405280929190818152602001828054610a02906127fd565b8015610a4f5780601f10610a2457610100808354040283529160200191610a4f565b820191906000526020600020905b815481529060010190602001808311610a3257829003601f168201915b505050505090506000610a606113e8565b9050600081511415610a76578192505050610ab9565b600082511115610aab578082604051602001610a9392919061231f565b60405160208183030381529060405292505050610ab9565b610ab4846113ff565b925050505b919050565b6000600560008473ffffffffffffffffffffffffffffffffffffffff1673ffffffffffffffffffffffffffffffffffffffff16815260200190815260200160002060008373ffffffffffffffffffffffffffffffffffffffff1673ffffffffffffffffffffffffffffffffffffffff16815260200190815260200160002060009054906101000a900460ff16905092915050565b6000610b5c611088565b610b666008611467565b6000610b72600861147d565b9050610b7e848261148b565b610b888184611665565b8091505092915050565b610b9a611088565b600073ffffffffffffffffffffffffffffffffffffffff168173ffffffffffffffffffffffffffffffffffffffff161415610c0a576040517f08c379a0000000000000000000000000000000000000000000000000000000008152600401610c0190612407565b60405180910390fd5b610c1381611159565b50565b60007f01ffc9a7000000000000000000000000000000000000000000000000000000007bffffffffffffffffffffffffffffffffffffffffffffffffffffffff1916827bffffffffffffffffffffffffffffffffffffffffffffffffffffffff1916149050919050565b610c89816116d9565b610cc8576040517f08c379a0000000000000000000000000000000000000000000000000000000008152600401610cbf90612547565b60405180910390fd5b50565b600033905090565b816004600083815260200190815260200160002060006101000a81548173ffffffffffffffffffffffffffffffffffffffff021916908373ffffffffffffffffffffffffffffffffffffffff160217905550808273ffffffffffffffffffffffffffffffffffffffff16610d46836106f9565b73ffffffffffffffffffffffffffffffffffffffff167f8c5be1e5ebec7d5bd14f71427d1e84f3dd0314c0f7b2291e5b200ac8c7c3b92560405160405180910390a45050565b600080610d98836106f9565b90508073ffffffffffffffffffffffffffffffffffffffff168473ffffffffffffffffffffffffffffffffffffffff161480610dda5750610dd98185610abe565b5b80610e1857508373ffffffffffffffffffffffffffffffffffffffff16610e0084610507565b73ffffffffffffffffffffffffffffffffffffffff16145b91505092915050565b8273ffffffffffffffffffffffffffffffffffffffff16610e41826106f9565b73ffffffffffffffffffffffffffffffffffffffff1614610e97576040517f08c379a0000000000000000000000000000000000000000000000000000000008152600401610e8e90612427565b60405180910390fd5b600073ffffffffffffffffffffffffffffffffffffffff168273ffffffffffffffffffffffffffffffffffffffff161415610f07576040517f08c379a0000000000000000000000000000000000000000000000000000000008152600401610efe90612467565b60405180910390fd5b610f12838383611745565b610f1d600082610cd3565b6001600360008573ffffffffffffffffffffffffffffffffffffffff1673ffffffffffffffffffffffffffffffffffffffff1681526020019081526020016000206000828254610f6d9190612713565b925050819055506001600360008473ffffffffffffffffffffffffffffffffffffffff1673ffffffffffffffffffffffffffffffffffffffff1681526020019081526020016000206000828254610fc4919061268c565b92505081905550816002600083815260200190815260200160002060006101000a81548173ffffffffffffffffffffffffffffffffffffffff021916908373ffffffffffffffffffffffffffffffffffffffff160217905550808273ffffffffffffffffffffffffffffffffffffffff168473ffffffffffffffffffffffffffffffffffffffff167fddf252ad1be2c89b69c2b068fc378daa952ba7f163c4a11628f55a4df523b3ef60405160405180910390a461108383838361174a565b505050565b611090610ccb565b73ffffffffffffffffffffffffffffffffffffffff166110ae610877565b73ffffffffffffffffffffffffffffffffffffffff1614611104576040517f08c379a00000000000000000000000000000000000000000000000000000000081526004016110fb90612527565b60405180910390fd5b565b61110f8161174f565b600060066000838152602001908152602001600020805461112f906127fd565b905014611156576006600082815260200190815260200160002060006111559190611bd3565b5b50565b6000600760009054906101000a900473ffffffffffffffffffffffffffffffffffffffff16905081600760006101000a81548173ffffffffffffffffffffffffffffffffffffffff021916908373ffffffffffffffffffffffffffffffffffffffff1602179055508173ffffffffffffffffffffffffffffffffffffffff168173ffffffffffffffffffffffffffffffffffffffff167f8be0079c531659141344cd1fd0a4f28419497f9722a3daafe3b4186f6b6457e060405160405180910390a35050565b8173ffffffffffffffffffffffffffffffffffffffff168373ffffffffffffffffffffffffffffffffffffffff16141561128e576040517f08c379a000000000000000000000000000000000000000000000000000000000815260040161128590612487565b60405180910390fd5b80600560008573ffffffffffffffffffffffffffffffffffffffff1673ffffffffffffffffffffffffffffffffffffffff16815260200190815260200160002060008473ffffffffffffffffffffffffffffffffffffffff1673ffffffffffffffffffffffffffffffffffffffff16815260200190815260200160002060006101000a81548160ff0219169083151502179055508173ffffffffffffffffffffffffffffffffffffffff168373ffffffffffffffffffffffffffffffffffffffff167f17307eab39ab6107e8899845ad3d59bd9653f200f220920489ca2b5937696c318360405161137f91906123aa565b60405180910390a3505050565b611397848484610e21565b6113a38484848461186c565b6113e2576040517f08c379a00000000000000000000000000000000000000000000000000000000081526004016113d9906123e7565b60405180910390fd5b50505050565b606060405180602001604052806000815250905090565b606061140a82610c80565b60006114146113e8565b90506000815111611434576040518060200160405280600081525061145f565b8061143e84611a03565b60405160200161144f92919061231f565b6040516020818303038152906040525b915050919050565b6001816000016000828254019250508190555050565b600081600001549050919050565b600073ffffffffffffffffffffffffffffffffffffffff168273ffffffffffffffffffffffffffffffffffffffff1614156114fb576040517f08c379a00000000000000000000000000000000000000000000000000000000081526004016114f290612507565b60405180910390fd5b611504816116d9565b15611544576040517f08c379a000000000000000000000000000000000000000000000000000000000815260040161153b90612447565b60405180910390fd5b61155060008383611745565b6001600360008473ffffffffffffffffffffffffffffffffffffffff1673ffffffffffffffffffffffffffffffffffffffff16815260200190815260200160002060008282546115a0919061268c565b92505081905550816002600083815260200190815260200160002060006101000a81548173ffffffffffffffffffffffffffffffffffffffff021916908373ffffffffffffffffffffffffffffffffffffffff160217905550808273ffffffffffffffffffffffffffffffffffffffff16600073ffffffffffffffffffffffffffffffffffffffff167fddf252ad1be2c89b69c2b068fc378daa952ba7f163c4a11628f55a4df523b3ef60405160405180910390a46116616000838361174a565b5050565b61166e826116d9565b6116ad576040517f08c379a00000000000000000000000000000000000000000000000000000000081526004016116a4906124c7565b60405180910390fd5b806006600084815260200190815260200160002090805190602001906116d4929190611c13565b505050565b60008073ffffffffffffffffffffffffffffffffffffffff166002600084815260200190815260200160002060009054906101000a900473ffffffffffffffffffffffffffffffffffffffff1673ffffffffffffffffffffffffffffffffffffffff1614159050919050565b505050565b505050565b600061175a826106f9565b905061176881600084611745565b611773600083610cd3565b6001600360008373ffffffffffffffffffffffffffffffffffffffff1673ffffffffffffffffffffffffffffffffffffffff16815260200190815260200160002060008282546117c39190612713565b925050819055506002600083815260200190815260200160002060006101000a81549073ffffffffffffffffffffffffffffffffffffffff021916905581600073ffffffffffffffffffffffffffffffffffffffff168273ffffffffffffffffffffffffffffffffffffffff167fddf252ad1be2c89b69c2b068fc378daa952ba7f163c4a11628f55a4df523b3ef60405160405180910390a46118688160008461174a565b5050565b600061188d8473ffffffffffffffffffffffffffffffffffffffff16611bb0565b156119f6578373ffffffffffffffffffffffffffffffffffffffff1663150b7a026118b6610ccb565b8786866040518563ffffffff1660e01b81526004016118d8949392919061235e565b602060405180830381600087803b1580156118f257600080fd5b505af192505050801561192357506040513d601f19601f820116820180604052508101906119209190612013565b60015b6119a6573d8060008114611953576040519150601f19603f3d011682016040523d82523d6000602084013e611958565b606091505b5060008151141561199e576040517f08c379a0000000000000000000000000000000000000000000000000000000008152600401611995906123e7565b60405180910390fd5b805181602001fd5b63150b7a0260e01b7bffffffffffffffffffffffffffffffffffffffffffffffffffffffff1916817bffffffffffffffffffffffffffffffffffffffffffffffffffffffff1916149150506119fb565b600190505b949350505050565b60606000821415611a4b576040518060400160405280600181526020017f30000000000000000000000000000000000000000000000000000000000000008152509050611bab565b600082905060005b60008214611a7d578080611a6690612860565b915050600a82611a7691906126e2565b9150611a53565b60008167ffffffffffffffff811115611abf577f4e487b7100000000000000000000000000000000000000000000000000000000600052604160045260246000fd5b6040519080825280601f01601f191660200182016040528015611af15781602001600182028036833780820191505090505b5090505b60008514611ba457600182611b0a9190612713565b9150600a85611b1991906128a9565b6030611b25919061268c565b60f81b818381518110611b61577f4e487b7100000000000000000000000000000000000000000000000000000000600052603260045260246000fd5b60200101907effffffffffffffffffffffffffffffffffffffffffffffffffffffffffffff1916908160001a905350600a85611b9d91906126e2565b9450611af5565b8093505050505b919050565b6000808273ffffffffffffffffffffffffffffffffffffffff163b119050919050565b508054611bdf906127fd565b6000825580601f10611bf15750611c10565b601f016020900490600052602060002090810190611c0f9190611c99565b5b50565b828054611c1f906127fd565b90600052602060002090601f016020900481019282611c415760008555611c88565b82601f10611c5a57805160ff1916838001178555611c88565b82800160010185558215611c88579182015b82811115611c87578251825591602001919060010190611c6c565b5b509050611c959190611c99565b5090565b5b80821115611cb2576000816000905550600101611c9a565b5090565b6000611cc9611cc4846125e7565b6125c2565b905082815260208101848484011115611ce157600080fd5b611cec8482856127bb565b509392505050565b6000611d07611d0284612618565b6125c2565b905082815260208101848484011115611d1f57600080fd5b611d2a8482856127bb565b509392505050565b600081359050611d4181612d3b565b92915050565b600081359050611d5681612d52565b92915050565b600081359050611d6b81612d69565b92915050565b600081519050611d8081612d69565b92915050565b600082601f830112611d9757600080fd5b8135611da7848260208601611cb6565b91505092915050565b600082601f830112611dc157600080fd5b8135611dd1848260208601611cf4565b91505092915050565b600081359050611de981612d80565b92915050565b600060208284031215611e0157600080fd5b6000611e0f84828501611d32565b91505092915050565b60008060408385031215611e2b57600080fd5b6000611e3985828601611d32565b9250506020611e4a85828601611d32565b9150509250929050565b600080600060608486031215611e6957600080fd5b6000611e7786828701611d32565b9350506020611e8886828701611d32565b9250506040611e9986828701611dda565b9150509250925092565b60008060008060808587031215611eb957600080fd5b6000611ec787828801611d32565b9450506020611ed887828801611d32565b9350506040611ee987828801611dda565b925050606085013567ffffffffffffffff811115611f0657600080fd5b611f1287828801611d86565b91505092959194509250565b60008060408385031215611f3157600080fd5b6000611f3f85828601611d32565b9250506020611f5085828601611d47565b9150509250929050565b60008060408385031215611f6d57600080fd5b6000611f7b85828601611d32565b925050602083013567ffffffffffffffff811115611f9857600080fd5b611fa485828601611db0565b9150509250929050565b60008060408385031215611fc157600080fd5b6000611fcf85828601611d32565b9250506020611fe085828601611dda565b9150509250929050565b600060208284031215611ffc57600080fd5b600061200a84828501611d5c565b91505092915050565b60006020828403121561202557600080fd5b600061203384828501611d71565b91505092915050565b60006020828403121561204e57600080fd5b600061205c84828501611dda565b91505092915050565b61206e81612747565b82525050565b61207d81612759565b82525050565b600061208e82612649565b612098818561265f565b93506120a88185602086016127ca565b6120b181612996565b840191505092915050565b60006120c782612654565b6120d18185612670565b93506120e18185602086016127ca565b6120ea81612996565b840191505092915050565b600061210082612654565b61210a8185612681565b935061211a8185602086016127ca565b80840191505092915050565b6000612133603283612670565b915061213e826129a7565b604082019050919050565b6000612156602683612670565b9150612161826129f6565b604082019050919050565b6000612179602583612670565b915061218482612a45565b604082019050919050565b600061219c601c83612670565b91506121a782612a94565b602082019050919050565b60006121bf602483612670565b91506121ca82612abd565b604082019050919050565b60006121e2601983612670565b91506121ed82612b0c565b602082019050919050565b6000612205602983612670565b915061221082612b35565b604082019050919050565b6000612228602e83612670565b915061223382612b84565b604082019050919050565b600061224b603e83612670565b915061225682612bd3565b604082019050919050565b600061226e602083612670565b915061227982612c22565b602082019050919050565b6000612291602083612670565b915061229c82612c4b565b602082019050919050565b60006122b4601883612670565b91506122bf82612c74565b602082019050919050565b60006122d7602183612670565b91506122e282612c9d565b604082019050919050565b60006122fa602e83612670565b915061230582612cec565b604082019050919050565b612319816127b1565b82525050565b600061232b82856120f5565b915061233782846120f5565b91508190509392505050565b60006020820190506123586000830184612065565b92915050565b60006080820190506123736000830187612065565b6123806020830186612065565b61238d6040830185612310565b818103606083015261239f8184612083565b905095945050505050565b60006020820190506123bf6000830184612074565b92915050565b600060208201905081810360008301526123df81846120bc565b905092915050565b6000602082019050818103600083015261240081612126565b9050919050565b6000602082019050818103600083015261242081612149565b9050919050565b600060208201905081810360008301526124408161216c565b9050919050565b600060208201905081810360008301526124608161218f565b9050919050565b60006020820190508181036000830152612480816121b2565b9050919050565b600060208201905081810360008301526124a0816121d5565b9050919050565b600060208201905081810360008301526124c0816121f8565b9050919050565b600060208201905081810360008301526124e08161221b565b9050919050565b600060208201905081810360008301526125008161223e565b9050919050565b6000602082019050818103600083015261252081612261565b9050919050565b6000602082019050818103600083015261254081612284565b9050919050565b60006020820190508181036000830152612560816122a7565b9050919050565b60006020820190508181036000830152612580816122ca565b9050919050565b600060208201905081810360008301526125a0816122ed565b9050919050565b60006020820190506125bc6000830184612310565b92915050565b60006125cc6125dd565b90506125d8828261282f565b919050565b6000604051905090565b600067ffffffffffffffff82111561260257612601612967565b5b61260b82612996565b9050602081019050919050565b600067ffffffffffffffff82111561263357612632612967565b5b61263c82612996565b9050602081019050919050565b600081519050919050565b600081519050919050565b600082825260208201905092915050565b600082825260208201905092915050565b600081905092915050565b6000612697826127b1565b91506126a2836127b1565b9250827fffffffffffffffffffffffffffffffffffffffffffffffffffffffffffffffff038211156126d7576126d66128da565b5b828201905092915050565b60006126ed826127b1565b91506126f8836127b1565b92508261270857612707612909565b5b828204905092915050565b600061271e826127b1565b9150612729836127b1565b92508282101561273c5761273b6128da565b5b828203905092915050565b600061275282612791565b9050919050565b60008115159050919050565b60007fffffffff0000000000000000000000000000000000000000000000000000000082169050919050565b600073ffffffffffffffffffffffffffffffffffffffff82169050919050565b6000819050919050565b82818337600083830152505050565b60005b838110156127e85780820151818401526020810190506127cd565b838111156127f7576000848401525b50505050565b6000600282049050600182168061281557607f821691505b6020821081141561282957612828612938565b5b50919050565b61283882612996565b810181811067ffffffffffffffff8211171561285757612856612967565b5b80604052505050565b600061286b826127b1565b91507fffffffffffffffffffffffffffffffffffffffffffffffffffffffffffffffff82141561289e5761289d6128da565b5b600182019050919050565b60006128b4826127b1565b91506128bf836127b1565b9250826128cf576128ce612909565b5b828206905092915050565b7f4e487b7100000000000000000000000000000000000000000000000000000000600052601160045260246000fd5b7f4e487b7100000000000000000000000000000000000000000000000000000000600052601260045260246000fd5b7f4e487b7100000000000000000000000000000000000000000000000000000000600052602260045260246000fd5b7f4e487b7100000000000000000000000000000000000000000000000000000000600052604160045260246000fd5b6000601f19601f8301169050919050565b7f4552433732313a207472616e7366657220746f206e6f6e20455243373231526560008201527f63656976657220696d706c656d656e7465720000000000000000000000000000602082015250565b7f4f776e61626c653a206e6577206f776e657220697320746865207a65726f206160008201527f6464726573730000000000000000000000000000000000000000000000000000602082015250565b7f4552433732313a207472616e736665722066726f6d20696e636f72726563742060008201527f6f776e6572000000000000000000000000000000000000000000000000000000602082015250565b7f4552433732313a20746f6b656e20616c7265616479206d696e74656400000000600082015250565b7f4552433732313a207472616e7366657220746f20746865207a65726f2061646460008201527f7265737300000000000000000000000000000000000000000000000000000000602082015250565b7f4552433732313a20617070726f766520746f2063616c6c657200000000000000600082015250565b7f4552433732313a2061646472657373207a65726f206973206e6f74206120766160008201527f6c6964206f776e65720000000000000000000000000000000000000000000000602082015250565b7f45524337323155524953746f726167653a2055524920736574206f66206e6f6e60008201527f6578697374656e7420746f6b656e000000000000000000000000000000000000602082015250565b7f4552433732313a20617070726f76652063616c6c6572206973206e6f7420746f60008201527f6b656e206f776e6572206e6f7220617070726f76656420666f7220616c6c0000602082015250565b7f4552433732313a206d696e7420746f20746865207a65726f2061646472657373600082015250565b7f4f776e61626c653a2063616c6c6572206973206e6f7420746865206f776e6572600082015250565b7f4552433732313a20696e76616c696420746f6b656e2049440000000000000000600082015250565b7f4552433732313a20617070726f76616c20746f2063757272656e74206f776e6560008201527f7200000000000000000000000000000000000000000000000000000000000000602082015250565b7f4552433732313a2063616c6c6572206973206e6f7420746f6b656e206f776e6560008201527f72206e6f7220617070726f766564000000000000000000000000000000000000602082015250565b612d4481612747565b8114612d4f57600080fd5b50565b612d5b81612759565b8114612d6657600080fd5b50565b612d7281612765565b8114612d7d57600080fd5b50565b612d89816127b1565b8114612d9457600080fd5b5056fea26469706673582212208ef668ba1c8f185bfe0fc2b7b276047d23e27cd64856992b03c678add13a09f564736f6c63430008040033",
  "linkReferences": {},
  "deployedLinkReferences": {}
}